:020000040800F2
:10000000000002206D0B0008E10A0008E70A000862
:10001000ED0A0008F30A0008F90A000800000000D1
:10002000000000000000000000000000FF0A0008BF
:100030000D0B0008000000001B0B0008290B000836
:10004000BD0B0008BD0B0008BD0B0008BD0B000870
:10005000BD0B0008BD0B0008BD0B0008BD0B000860
:10006000BD0B0008BD0B0008BD0B0008BD0B000850
:10007000BD0B0008BD0B0008BD0B0008BD0B000840
:10008000BD0B0008BD0B0008BD0B0008BD0B000830
:10009000BD0B0008BD0B0008BD0B0008BD0B000820
:1000A000BD0B0008BD0B0008BD0B0008BD0B000810
:1000B000BD0B0008BD0B0008BD0B0008BD0B000800
:1000C000BD0B0008BD0B0008BD0B0008BD0B0008F0
:1000D000BD0B0008BD0B0008BD0B0008BD0B0008E0
:1000E000BD0B0008BD0B0008BD0B0008BD0B0008D0
:1000F000BD0B0008BD0B0008BD0B0008BD0B0008C0
:10010000BD0B0008BD0B0008BD0B0008BD0B0008AF
:10011000BD0B0008BD0B0008BD0B0008BD0B00089F
:10012000BD0B0008BD0B0008BD0B0008BD0B00088F
:10013000BD0B00080000000000000000BD0B00081F
:10014000BD0B0008BD0B0008BD0B0008350B0008F7
:10015000BD0B0008BD0B0008BD0B0008BD0B00085F
:10016000BD0B0008BD0B0008BD0B0008BD0B00084F
:10017000BD0B0008BD0B0008BD0B0008000000000F
:1001800000000000BD0B000800000000000000009F
:10019000BD0B00080000000000000000BD0B0008BF
:1001A000000000000000000000000000BD0B00087F
:1001B000BD0B0008BD0B0008BD0B0008BD0B0008FF
:0401C000BD0B00086B
:1001C40010B5054C237833B9044B13B10448AFF38D
:1001D40000800123237010BD1801002000000000DE
:1001E400B07C000808B5034B1BB103490348AFF3C7
:1001F400008008BD000000001C010020B07C000845
:1002040053B94AB9002908BF00281CBF4FF0FF3179
:100214004FF0FF3000F074B9ADF1080C6DE904CE75
:1002240000F006F8DDF804E0DDE9022304B07047CD
:100234002DE9F047089D04468E46002B4DD18A4295
:10024400944669D9B2FA82F252B101FA02F3C2F1C8
:10025400200120FA01F10CFA02FC41EA030E944059
:100264004FEA1C48210CBEFBF8F61FFA8CF708FB7A
:1002740016E341EA034306FB07F199420AD91CEB52
:10028400030306F1FF3080F01F81994240F21C8184
:10029400023E63445B1AA4B2B3FBF8F008FB1033CC
:1002A40044EA034400FB07F7A7420AD91CEB040401
:1002B40000F1FF3380F00A81A74240F207816444D1
:1002C400023840EA0640E41B00261DB1D440002356
:1002D400C5E900433146BDE8F0878B4209D9002DBA
:1002E40000F0EF800026C5E9000130463146BDE844
:1002F400F087B3FA83F6002E4AD18B4202D38242AE
:1003040000F2F980841A61EB030301209E46002D5C
:10031400E0D0C5E9004EDDE702B9FFDEB2FA82F2B1
:10032400002A40F09280A1EB0C014FEA1C471FFA0F
:100334008CFE0126200CB1FBF7F307FB131140EAF6
:1003440001410EFB03F0884208D91CEB010103F1C3
:10035400FF3802D2884200F2CB804346091AA4B285
:10036400B1FBF7F007FB101144EA01440EFB00FE59
:10037400A64508D91CEB040400F1FF3102D2A645BE
:1003840000F2BB800846A4EB0E0440EA03409CE75D
:10039400C6F12007B34022FA07FC4CEA030C20FA0A
:1003A40007F401FA06F31C43F9404FEA1C4900FA2A
:1003B40006F3B1FBF9F8200C1FFA8CFE09FB1811A7
:1003C40040EA014108FB0EF0884202FA06F20BD91A
:1003D4001CEB010108F1FF3A80F08880884240F26A
:1003E4008580A8F102086144091AA4B2B1FBF9F0AE
:1003F40009FB101144EA014100FB0EFE8E4508D9A9
:100404001CEB010100F1FF346CD28E456AD902382D
:10041400614440EA0840A0FB0294A1EB0E01A14212
:10042400C846A64656D353D05DB1B3EB080261EB80
:100434000E0101FA07F722FA06F3F1401F43C5E95A
:10044400007100263146BDE8F087C2F12003D84090
:100454000CFA02FC21FA03F3914001434FEA1C47D2
:100464001FFA8CFEB3FBF7F007FB10360B0C43EAC4
:10047400064300FB0EF69E4204FA02F408D91CEB74
:10048400030300F1FF382FD29E422DD90238634472
:100494009B1B89B2B3FBF7F607FB163341EA034112
:1004A40006FB0EF38B4208D91CEB010106F1FF3861
:1004B40016D28B4214D9023E6144C91A46EA004658
:1004C40038E72E46284605E70646E3E61846F8E6EA
:1004D4004B45A9D2B9EB020864EB0C0E0138A3E733
:1004E4004646EAE7204694E74046D1E7D0467BE714
:1004F400023B614432E7304609E76444023842E78C
:10050400704700BF80B58AB000AF07F11403002222
:100514001A605A609A60DA601A6100233B613C4BAE
:100524001B6B3B4A43F080031363394B1B6B03F093
:1005340080033B613B690023FB60354B1B6B344AF2
:1005440043F001031363324B1B6B03F00103FB60A5
:10055400FB680023BB602E4B1B6B2D4A43F0040346
:1005640013632B4B1B6B03F00403BB60BB680023BA
:100574007B60274B1B6B264A43F002031363244B17
:100584001B6B03F002037B607B6800224FF47071E5
:10059400204800F04FFE00224FF45C711E4800F02A
:1005A40049FE00224FF207411C4800F043FE4FF47D
:1005B40070737B610123BB610023FB6100233B62F9
:1005C40007F114031946134800F0A0FC4FF45C73C0
:1005D4007B610123BB610023FB6100233B6207F1C4
:1005E400140319460C4800F091FC4FF207437B6159
:1005F4000123BB610023FB6100233B6207F1140369
:100604001946064800F082FC00BF2837BD4680BD6D
:10061400003802400000024000080240000402408A
:1006240080B500AF00F00EF801224FF48051044869
:1006340000F000FE642000F033FB00BF80BD00BF6B
:100644000004024080B500AF00224FF400712B4833
:1006540000F0F0FD00224FF40051294800F0EAFDBB
:1006640000220121264800F0E5FD00224021234814
:1006740000F0E0FD00224FF48071224800F0DAFD22
:1006840000224FF400711F4800F0D4FD00224FF403
:1006940080711A4800F0CEFD00224FF480411848C2
:1006A40000F0C8FD00224FF40041154800F0C2FDDF
:1006B40000224021134800F0BDFD00220221104811
:1006C40000F0B8FD002204210D4800F0B3FD002223
:1006D4004FF480610A4800F0ADFD002280210748F4
:1006E40000F0A8FD00221021064800F0A3FD00221E
:1006F4002021044800F09EFD00BF80BD00000240A0
:10070400000402400008024080B500AFFFF79AFFE2
:1007140000224FF48051024800F08CFD00BF80BDE0
:100724000004024080B58AB000AF0346FB71FFF7B6
:1007340089FFFB79002B39D0FB79082B36D80122AD
:100744004FF40071684800F075FDFB79013BDBB2A2
:1007540003F07F03DAB297F8243062F3060387F8D4
:10076400243097F8243087F8203097F82030C3F3EA
:100774000003DBB21A464FF480715C4800F05AFD66
:1007840097F82030C3F34003DBB21A464FF40071EC
:10079400564800F04FFD97F82030C3F38003DBB2D6
:1007A4001A464FF48071504800F044FDFB79082B41
:1007B40031D9FB79102B2ED801224FF400514C482B
:1007C40000F038FDFB79093BDBB203F07F03DAB2BA
:1007D4003B7F62F306033B773B7F3B763B7EC3F371
:1007E4000003DBB21A464FF48041414800F022FD79
:1007F4003B7EC3F34003DBB21A464FF400413C484E
:1008040000F018FD3B7EC3F38003DBB21A4640219F
:10081400364800F00FFDFB79102B2FD9FB79182BEC
:100824002CD801220121324800F004FDFB79193B48
:10083400DBB203F07F03DAB23B7D62F306033B7560
:100844003B7D3B743B7CC3F30003DBB21A460221BD
:10085400274800F0EFFC3B7CC3F34003DBB21A46AD
:100864000421234800F0E6FC3B7CC3F38003DBB2A5
:100874001A464FF480611E4800F0DCFCFB79182B0B
:100884002ED9FB79202B2BD801224021164800F0C9
:10089400D1FCFB79203BDBB203F07F03DAB23B7B74
:1008A40062F306033B733B7B3B723B7AC3F3000367
:1008B400DBB21A4680210C4800F0BCFC3B7AC3F33F
:1008C4004003DBB21A461021084800F0B3FC3B7A1F
:1008D400C3F38003DBB21A462021044800F0AAFCCB
:1008E40000BF2837BD4680BD00000240000802401A
:1008F4000004024080B500AF00F060F900F054F845
:10090400FFF700FE06F016FCFFF78AFE01212248DD
:1009140006F0BAFC204B1B78002B10D01E4B1B7822
:10092400202B0CD81C4B1B781846FFF7FBFE1A4BE8
:1009340000221A700121194806F0BAFC27E0164B70
:100944001B78FF2B18D0FF2B20DCAA2B02D0FE2B08
:1009540008D01BE00121124806F0AAFC0E4B00222D
:100964001A7014E0FFF76EFE0B4B00221A7001217F
:100974000C4806F09DFC0AE0FFF7C6FE0121094879
:1009840006F096FC044B00221A7000E000BF0A2017
:1009940000F086F9BAE700BF340100200800002007
:1009A400000000200400002080B594B000AF07F1DF
:1009B4001C0334220021184607F070F907F10803DC
:1009C40000221A605A609A60DA601A6100237B6020
:1009D400294B1B6C284A43F080531364264B1B6C31
:1009E40003F080537B607B6800233B60234B1B68D0
:1009F40023F44043214A43F4804313601F4B1B6894
:100A040003F440433B603B680123FB614FF48033B4
:100A14003B6202237B634FF48003BB630723FB63C6
:100A240048233B6402237B640323BB640223FB64EB
:100A340007F11C03184602F0A5FC0346002B01D065
:100A440000F01EF80F23BB600223FB6000233B6110
:100A54004FF480537B610023BB6107F1080302213B
:100A6400184601F0C9FE0346002B01D000F008F837
:100A740000BF5037BD4680BD0038024000700040C2
:100A840080B400AF72B600BFFEE7000080B483B04C
:100A940000AF00237B60104B5B6C0F4A43F4804330
:100AA40053640D4B5B6C03F480437B607B680023D1
:100AB4003B60094B1B6C084A43F080531364064B9C
:100AC4001B6C03F080533B603B6800BF0C37BD4692
:100AD4005DF8047B704700BF0038024080B400AF6B
:100AE400FEE780B400AFFEE780B400AFFEE780B459
:100AF40000AFFEE780B400AFFEE780B400AF00BFF4
:100B0400BD465DF8047B704780B400AF00BFBD46AE
:100B14005DF8047B704780B400AF00BFBD465DF84C
:100B2400047B704780B500AF00F09AF800BF80BD29
:100B340080B500AF024800F0EDFC00BF80BD00BFEF
:100B44001C16002080B400AF064BD3F88830054A49
:100B540043F47003C2F8883000BFBD465DF8047BDF
:100B6400704700BF00ED00E0DFF834D00D480E49B7
:100B74000E4A002302E0D458C4500433C4188C42F3
:100B8400F9D30B4A0B4C002301E013600432A24258
:100B9400FBD3FFF7D7FF07F05DF8FFF7ABFE704715
:100BA400000002200000002018010020307D000811
:100BB40018010020481D0020FEE7000080B500AFAA
:100BC4000E4B1B680D4A43F4007313600B4B1B68F8
:100BD4000A4A43F480631360084B1B68074A43F4D2
:100BE40080731360032000F04FF90F2000F008F821
:100BF400FFF74CFF0023184680BD00BF003C0240B5
:100C040080B582B000AF7860124B1A68124B1B7823
:100C140019464FF47A73B3FBF1F3B2FBF3F31846BE
:100C240000F067F90346002B01D001230EE07B6836
:100C34000F2B0AD8002279684FF0FF3000F02FF90B
:100C4400064A7B681360002300E001231846083736
:100C5400BD4680BD0C0000201400002010000020C0
:100C640080B400AF064B1B781A46064B1B6813442E
:100C7400044A136000BFBD465DF8047B704700BFA3
:100C8400140000203801002080B400AF034B1B681F
:100C94001846BD465DF8047B704700BF380100204C
:100CA40080B584B000AF7860FFF7EEFFB8607B6872
:100CB400FB60FB68B3F1FF3F05D00A4B1B781A4673
:100CC400FB681344FB6000BFFFF7DEFF0246BB680E
:100CD400D31AFA689A42F7D800BF00BF1037BD464E
:100CE40080BD00BF1400002080B485B000AF7860E0
:100CF4007B6803F00703FB600C4BDB68BB60BA68DE
:100D04004FF6FF031340BB60FB681A02BB68134332
:100D140043F0BF6343F40033BB60044ABB68D36051
:100D240000BF1437BD465DF8047B704700ED00E05A
:100D340080B400AF044BDB681B0A03F007031846BA
:100D4400BD465DF8047B704700ED00E080B483B0DD
:100D540000AF0346FB7197F90730002B0BDBFB79DF
:100D640003F01F02074997F907305B09012000FAD5
:100D740002F241F8232000BF0C37BD465DF8047B26
:100D8400704700BF00E100E080B483B000AF0346C9
:100D94003960FB7197F90730002B0ADB3B68DAB244
:100DA4000C4997F907301201D2B20B4483F800239F
:100DB4000AE03B68DAB20849FB7903F00F03043B0D
:100DC4001201D2B20B441A7600BF0C37BD465DF84F
:100DD400047B704700E100E000ED00E080B489B0DE
:100DE40000AFF860B9607A60FB6803F00703FB6149
:100DF400FB69C3F10703042B28BF0423BB61FB6910
:100E04000433062B02D9FB69033B00E000237B611A
:100E14004FF0FF32BB6902FA03F3DA43BB681A40AE
:100E24007B699A404FF0FF317B6901FA03F3D943A0
:100E34007B680B40134318462437BD465DF8047B9A
:100E44007047000080B582B000AF78607B68013BDA
:100E5400B3F1807F01D301230FE00A4A7B68013B91
:100E640053600F214FF0FF30FFF78EFF054B002238
:100E74009A60044B07221A60002318460837BD46BF
:100E840080BD00BF10E000E080B582B000AF7860A4
:100E94007868FFF729FF00BF0837BD4680BD80B5DD
:100EA40086B000AF0346B9607A60FB7300237B61B0
:100EB400FFF73EFF78617A68B9687869FFF78EFFBB
:100EC400024697F90F3011461846FFF75DFF00BF41
:100ED4001837BD4680BD80B582B000AF0346FB71B4
:100EE40097F907301846FFF731FF00BF0837BD46B2
:100EF40080BD80B582B000AF78607868FFF7A2FF4C
:100F0400034618460837BD4680BD000080B489B04A
:100F140000AF7860396000237B6100233B610023CC
:100F2400BB610023FB6165E10122FB6902FA03F363
:100F34007B613B681B687A6913403B613A697B6952
:100F44009A4240F054813B685B6803F00303012B31
:100F540005D03B685B6803F00303022B30D17B6848
:100F64009B68BB61FB695B00032202FA03F3DB436A
:100F7400BA691340BB613B68DA68FB695B0002FA3B
:100F840003F3BA691343BB617B68BA699A607B68EF
:100F94005B68BB610122FB6902FA03F3DB43BA69B4
:100FA4001340BB613B685B681B0903F00102FB69EA
:100FB40002FA03F3BA691343BB617B68BA695A60E6
:100FC4003B685B6803F00303032B17D07B68DB6883
:100FD400BB61FB695B00032202FA03F3DB43BA69DA
:100FE4001340BB613B689A68FB695B0002FA03F338
:100FF400BA691343BB617B68BA69DA603B685B68B2
:1010040003F00303022B23D1FB69DA087B6808325F
:1010140053F82230BB61FB6903F007039B000F22E6
:1010240002FA03F3DB43BA691340BB613B681A69F4
:10103400FB6903F007039B0002FA03F3BA69134345
:10104400BB61FB69DA087B680832B96943F822108E
:101054007B681B68BB61FB695B00032202FA03F334
:10106400DB43BA691340BB613B685B6803F003026E
:10107400FB695B0002FA03F3BA691343BB617B6843
:10108400BA691A603B685B6803F44033002B00F0D4
:10109400AE800023FB605D4B5B6C5C4A43F4804391
:1010A40053645A4B5B6C03F48043FB60FB68584AFF
:1010B400FB699B08023352F82330BB61FB6903F0E0
:1010C40003039B000F2202FA03F3DB43BA691340C4
:1010D400BB617B684F4A934225D07B684E4A93425A
:1010E4001FD07B684D4A934219D07B684C4A934287
:1010F40013D07B684B4A93420DD07B684A4A934293
:1011040007D07B68494A934201D106230CE00723A8
:101114000AE0052308E0042306E0032304E0022395
:1011240002E0012300E00023FA6902F003029200C6
:101134009340BA691343BB613549FB699B08023389
:10114400BA6941F823203A4B9B68BB613B69DB4396
:10115400BA691340BB613B685B6803F48013002BDE
:1011640003D0BA693B691343BB61314ABB699360DD
:101174002F4BDB68BB613B69DB43BA691340BB613E
:101184003B685B6803F40013002B03D0BA693B6926
:101194001343BB61264ABB69D360254B5B68BB61C3
:1011A4003B69DB43BA691340BB613B685B6803F48A
:1011B4000033002B03D0BA693B691343BB611C4A5B
:1011C400BB6953601A4B1B68BB613B69DB43BA695B
:1011D4001340BB613B685B6803F48033002B03D08E
:1011E400BA693B691343BB61114ABB691360FB696C
:1011F4000133FB61FB690F2B7FF696AE00BF00BF86
:101204002437BD465DF8047B704700BF00380240B8
:10121400003801400000024000040240000802407F
:10122400000C02400010024000140240001802406A
:10123400003C014080B483B000AF78600B467B80F3
:1012440013467B707B78002B03D07A887B689A6185
:1012540003E07B881A047B689A6100BF0C37BD46A3
:101264005DF8047B7047F0B58FB00AAF78607B6897
:10127400002B01D1012316E17B681B68BB607B68EE
:1012840093F8BD34DBB2002B06D17B68002283F8CF
:10129400BC24786806F066F97B68032283F8BD24D1
:1012A400BB68DB6B03F48073002B02D17B680022E4
:1012B4001A617B681B68184602F017FC7B681B6880
:1012C4003B607E686D4606F110040FCC0FC50FCC51
:1012D4000FC594E8030085E80300331D0ECB38687E
:1012E40002F0EEFA0346002B05D07B68022283F855
:1012F400BD240123D7E07B681B680021184602F057
:1013040005FC0023FB734AE0FA7B79681346DB0093
:1013140013449B000B443D3301221A70FA7B796815
:101324001346DB0013449B000B443C33FA7B1A70D6
:10133400FA7BFB7B98B279681346DB0013449B006D
:101344000B44443302461A80FA7B79681346DB0067
:1013540013449B000B44403300221A70FA7B7968D3
:101364001346DB0013449B000B44483300221A60ED
:10137400FA7B79681346DB0013449B000B444C331F
:1013840000221A60FA7B79681346DB0013449B0041
:101394000B44543300221A60FB7B0133FB73FA7B4A
:1013A4007B685B689A42AFD30023FB7344E0FA7B0B
:1013B40079681346DB0013449B000B4403F27D233E
:1013C40000221A70FA7B79681346DB0013449B00F1
:1013D4000B4403F51F73FA7B1A70FA7B7968134682
:1013E400DB0013449B000B4403F5207300221A70A6
:1013F400FA7B79681346DB0013449B000B4403F526
:10140400227300221A60FA7B79681346DB001344C6
:101414009B000B4403F5237300221A60FA7B79685E
:101424001346DB0013449B000B4403F52573002291
:101434001A60FB7B0133FB73FA7B7B685B689A421F
:10144400B5D37B681B683B607E686D4606F110046B
:101454000FCC0FC50FCC0FC594E8030085E803003B
:10146400331D0ECB386802F09DFB0346002B05D0DC
:101474007B68022283F8BD24012314E07B680022E8
:1014840083F838207B68012283F8BD247B685B6A7B
:10149400012B02D1786801F08BF97B681B68184630
:1014A40003F0DFFC002318461437BD46F0BD80B5B9
:1014B40084B000AF78607B681B68FB607B6893F83E
:1014C400BC34012B01D1022320E07B68012283F884
:1014D400BC247B689B6A012B09D17B689B69012B27
:1014E40005D0FB689B6B43F48032FB689A637B688E
:1014F4001B68184602F0E8FA7B681B68184603F07C
:101504008FFC7B68002283F8BC2400231846103724
:10151400BD4680BD90B58DB000AF78607B681B6818
:101524003B623B6AFB617B681B68184603F04DFD18
:101534000346002B40F0B7847B681B68184603F011
:10154400B1FC0346002B00F0AD84FB6903F5006396
:101554009B681B0AC3F30D027B68C3F8FC247B68F9
:101564001B68184603F09EFC034603F00203022B9B
:1015740007D17B681B685A697B681B6802F002020A
:101584005A617B681B68184603F08CFC034603F021
:101594001003102B61D17B681B689A697B681B68F8
:1015A40022F010029A613B6A1B6ABB61BB6903F0BB
:1015B4000F021346DB0013449B0003F51E737A6885
:1015C400134404337B61BB695B0C03F00F03022BF0
:1015D40024D1BA6947F6F0731340002B35D07B69E8
:1015E4001969BB691B099BB2C3F30A039BB21A4670
:1015F400386A03F0C3FA7B691A69BB691B09C3F330
:101604000A031A447B691A617B691A6ABB691B095C
:10161400C3F30A031A447B691A6216E0BB695B0CC4
:1016240003F00F03062B10D17B6803F2C443082296
:101634001946386A03F0A2FA7B691A6ABB691B0966
:10164400C3F30A031A447B691A627B681B689A69AC
:101654007B681B6842F010029A617B681B6818461D
:1016640003F020FC034603F40023B3F5002F40F0FD
:10167400A78000237B627B681B68184603F025FC67
:10168400B86299E0BB6A03F00103002B00F08E807E
:101694007B681B687A6AD2B21146184603F049FC8B
:1016A40038613B6903F00103002B0CD07B6A5A01BB
:1016B400FB69134403F530631A4601239360796A86
:1016C400786800F0EFFE3B6903F00803002B0CD0B0
:1016D4007B6A5A01FB69134403F530631A460823F5
:1016E4009360796A786800F0C5FF3B6903F01003E2
:1016F400002B08D07B6A5A01FB69134403F530635D
:101704001A46102393603B6903F00203002B30D088
:101714003B6A5B6903F08003802B09D1FB6903F505
:1017240000635B68FA6902F5006243F48063536006
:101734007A6A1346DB0013449B0003F51E737A6830
:10174400134404337B617B69DB78012B08D17B690B
:101754000022DA707B6ADBB21946786806F01EF85C
:101764007B6A5A01FB69134403F530631A4602236A
:1017740093603B6903F02003002B08D07B6A5A0175
:10178400FB69134403F530631A46202393603B69D5
:1017940003F40053002B09D07B6A5A01FB691344FC
:1017A40003F530631A464FF4005393607B6A0133A8
:1017B4007B62BB6A5B08BB62BB6A002B7FF462AFCF
:1017C4007B681B68184603F06DFB034603F4802313
:1017D400B3F5802F40F0DB807B681B68184603F06C
:1017E4008EFBB86200237B62CDE0BB6A03F0010389
:1017F400002B00F0C2807B681B687A6AD2B2114663
:10180400184603F0B4FB38613B6903F00103002B75
:1018140057D07B6A03F00F03012202FA03F3FB6043
:10182400FB6903F500635A6BFB68DB43F96901F557
:10183400006113404B637B6A5A01FB69134403F54F
:1018440010631A46012393607B681B69012B32D114
:1018540079687A6A1346DB0013449B000B444C33CB
:10186400196878687A6A1346DB0013449B000344C2
:1018740048331B68194478687A6A1346DB001344BA
:101884009B0003444C3319607B6A002B13D17968A5
:101894007A6A1346DB0013449B000B4454331B68E1
:1018A400002B08D17B6818687B6803F2C4431A468E
:1018B400012103F0BBFB7B6ADBB21946786805F0B3
:1018C400E8FE3B6903F00803002B08D07B6A5A0149
:1018D400FB69134403F510631A46082393603B69BC
:1018E40003F01003002B08D07B6A5A01FB691344F0
:1018F40003F510631A46102393603B6903F0400319
:10190400002B08D07B6A5A01FB69134403F510636A
:101914001A46402393603B6903F00203002B23D053
:10192400796A386A02F09CFA7A6A1346DB00134437
:101934009B0038337A68134404337B617B69DB781A
:10194400012B08D17B690022DA707B6ADBB219466D
:10195400786805F035FF7B6A5A01FB69134403F587
:1019640010631A46022393603B6903F08003002B43
:1019740003D0796A786800F008FD7B6A01337B62E2
:10198400BB6A5B08BB62BB6A002B7FF42EAF7B682B
:101994001B68184603F086FA034603F00043B3F1CC
:1019A400004F22D1FB6903F500635B68FA6902F515
:1019B400006223F0010353607B6893F8F434012B35
:1019C40008D17B68002283F8F4240021786806F0AB
:1019D400AFF802E0786805F0D3FE7B681B685A69AB
:1019E4007B681B6802F000425A617B681B681846DA
:1019F40003F058FA034603F40063B3F5006F12D101
:101A0400FB6903F500639B6803F00103012B02D11A
:101A1400786805F08FFE7B681B685A697B681B68D1
:101A240002F400625A617B681B68184603F03AFAB4
:101A3400034603F00063B3F1006F21D17B681B6898
:101A44005A697B681B6802F000625A617B6893F8EC
:101A5400F434002B11D17B68012283F8F4247B68D1
:101A64001B685B6D9B0803F00F027B68C3F8F824C6
:101A74000121786806F05CF802E0786805F05AFE07
:101A84007B681B68184603F00DFA034603F4805381
:101A9400B3F5805F40F0B780FB6903F500635B68D2
:101AA400FA6902F5006223F0010353607B681B6846
:101AB4001021184602F0D4F90023FB6246E0FB6AC9
:101AC4005A01FB69134403F510631A464FF67F333A
:101AD4009360FB6A5A01FB69134403F510631B68A6
:101AE400FA6A5101FA690A4402F5106223F40013F8
:101AF4001360FB6A5A01FB69134403F530631A4609
:101B04004FF67F339360FB6A5A01FB69134403F574
:101B140030631B68FA6A5101FA690A4402F53062BB
:101B240023F400131360FB6A5A01FB69134403F5A1
:101B340030631B68FA6A5101FA690A4402F530629B
:101B440043F000631360FB6A0133FB627B685B68EC
:101B5400FA6A9A42B3D3FB6903F50063DB69FA6955
:101B640002F5006243F00113D3617B681B6B002B09
:101B740016D0FB6903F50063D3F88430FA6902F5E3
:101B8400006243F00B03C2F88430FB6903F5006381
:101B94005B6CFA6902F5006243F00B03536415E0D1
:101BA400FB6903F500635B69FA6902F5006243F4BB
:101BB400005343F02B035361FB6903F500631B6976
:101BC400FA6902F5006243F00B031361FB6903F544
:101BD40000631B68FA6902F5006223F4FE63136074
:101BE4007B6818687B681B69D9B27B6803F2C443BD
:101BF4001A4603F01BFA7B681B685A697B681B68EA
:101C040002F480525A617B681B68184603F04AF953
:101C1400034603F40053B3F5005F24D17B681B68CB
:101C2400184603F0E0F97B681B68184602F095F942
:101C340003461A467B68DA607B681C6800F0C2FEC3
:101C440001467B68DB68DBB21A46204601F09AFE47
:101C5400786805F046FD7B681B685A697B681B68D9
:101C640002F400525A617B681B68184603F01AF9A3
:101C7400034603F00803082B0AD1786805F023FD16
:101C84007B681B685A697B681B6802F008025A610A
:101C94007B681B68184603F005F9034603F08003CC
:101CA400802B22D13B6A9B6923F080023B6A9A61B4
:101CB40001237B6214E079687A6A1346DB001344DB
:101CC4009B000B4403F27F231B78012B05D17B6A15
:101CD400DBB21946786800F027FB7B6A01337B622C
:101CE4007B685B687A6A9A42E5D37B681B6818460E
:101CF40003F0D8F8034603F48013B3F5801F3BD1F7
:101D040001237B622BE07B6A5A01FB69134403F5D0
:101D140010631B68BB6179687A6A1346DB0013445D
:101D24009B000B4440331B78012B15D1BB69002B5E
:101D340012DA79687A6A1346DB0013449B000B4479
:101D44003F3301221A707B6ADBB263F07F03DBB29C
:101D54001946786800F0E8FA7B6A01337B627B6895
:101D64005B687A6A9A42CED37B681B685A697B683F
:101D74001B6802F480125A617B681B68184603F0E2
:101D840091F8034603F40013B3F5001F55D1012362
:101D94007B6245E07B6A5A01FB69134403F53063B7
:101DA4001B68BB6179687A6A1346DB0013449B00A5
:101DB4000B4403F520731B78012B2ED1BB69002B38
:101DC4002BDABB6903F480327B68D3F8FC3403F06C
:101DD40001039A4221D179687A6A1346DB001344DD
:101DE4009B000B4403F27F2301221A703B6A9B6918
:101DF40043F080023B6A9A613B6A5B6903F08003AB
:101E0400002B0AD1FB6903F500635B68FA6902F5EC
:101E1400006243F40073536007E07B6A01337B6222
:101E24007B685B687A6A9A42B4D37B681B685A6998
:101E34007B681B6802F400125A617B681B681846B1
:101E440003F030F8034603F08043B3F1804F0AD126
:101E5400786805F0C7FC7B681B685A697B681B6857
:101E640002F080425A617B681B68184603F01AF836
:101E7400034603F00403042B15D17B681B685B68DD
:101E8400BB61BB6903F00403002B02D0786805F042
:101E9400B7FC7B681B6859687B681B68BA690A438E
:101EA4005A6000E000BF3437BD4690BD80B582B0B3
:101EB40000AF78600B46FB707B6893F8BC34012B51
:101EC40001D1022313E07B68012283F8BC247B68E0
:101ED400FA7883F838207B681B68FA78114618462C
:101EE40002F078FF7B68002283F8BC2400231846A4
:101EF4000837BD4680BD80B584B000AF7860084621
:101F040011461A460346FB700B463B801346BB70D2
:101F14000023FB7297F90330002B0FDAFB7803F0F0
:101F24000F021346DB0013449B0038337A681344D2
:101F34000433FB60FB6801225A700FE0FB7803F066
:101F44000F021346DB0013449B0003F51E737A68EB
:101F540013440433FB60FB6800225A70FB7803F0DF
:101F64000F03DAB2FB681A703A88FB68DA60FB6820
:101F7400BA781A71FB685B78002B04D0FB681B7875
:101F84009AB2FB681A81BB78022B02D1FB6800224B
:101F94005A717B6893F8BC34012B01D102230EE003
:101FA4007B68012283F8BC247B681B68F9681846A7
:101FB40001F0F8FF7B68002283F8BC24FB7A184602
:101FC4001037BD4680BD80B584B000AF78600B4645
:101FD400FB7097F90330002B0FDAFB7803F00F0244
:101FE4001346DB0013449B0038337A6813440433EC
:101FF400FB60FB6801225A700FE0FB7803F00F02CC
:102004001346DB0013449B0003F51E737A681344E4
:102014000433FB60FB6800225A70FB7803F00F0363
:10202400DAB2FB681A707B6893F8BC34012B01D1D7
:1020340002230EE07B68012283F8BC247B681B68C2
:10204400F968184602F036F87B68002283F8BC244D
:10205400002318461037BD4680BD80B586B000AF5A
:10206400F8607A603B600B46FB72FB7A03F00F0268
:102074001346DB0013449B0003F51E73FA681344F4
:1020840004337B617B697A681A617B693A689A6177
:102094007B6900221A627B6900225A70FB7A03F082
:1020A4000F03DAB27B691A70FB681B69012B02D13A
:1020B4007A687B695A61FB7A03F00F03002B09D11C
:1020C400FB681868FB681B69DBB21A46796902F081
:1020D40015FB08E0FB681868FB681B69DBB21A464D
:1020E400796902F0C3F8002318461837BD4680BD4D
:1020F40080B483B000AF78600B46FB70FB7803F0CC
:102104000F0279681346DB0013449B000B4403F56C
:1021140027731B6818460C37BD465DF8047B70476F
:1021240080B586B000AFF8607A603B600B46FB7206
:10213400FB7A03F00F021346DB0013449B00383391
:10214400FA68134404337B617B697A681A617B699A
:102154003A689A617B6900221A627B6901225A708B
:10216400FB7A03F00F03DAB27B691A70FB681B6910
:10217400012B02D17A687B695A61FB7A03F00F0361
:10218400002B09D1FB681868FB681B69DBB21A468F
:10219400796902F0B3FA08E0FB681868FB681B6908
:1021A400DBB21A46796902F061F800231846183741
:1021B400BD4680BD80B584B000AF78600B46FB702F
:1021C400FB7803F00F027B685B689A4201D9012314
:1021D40050E097F90330002B0FDAFB7803F00F027D
:1021E4001346DB0013449B0038337A6813440433EA
:1021F400FB60FB6801225A700DE0FA781346DB009D
:1022040013449B0003F51E737A6813440433FB6084
:10221400FB6800225A70FB6801229A70FB7803F075
:102224000F03DAB2FB681A707B6893F8BC34012B95
:1022340001D102231EE07B68012283F8BC247B6861
:102244001B68F968184602F0F1FCFB7803F00F03F1
:10225400002B0AD17B6818687B681B69D9B27B683C
:1022640003F2C4431A4602F0E1FE7B68002283F8BD
:10227400BC24002318461037BD4680BD80B584B009
:1022840000AF78600B46FB70FB7803F00F027B68AD
:102294005B689A4201D9012342E097F90330002B8D
:1022A4000FDAFB7803F00F021346DB0013449B00A4
:1022B40038337A6813440433FB60FB6801225A7094
:1022C4000FE0FB7803F00F021346DB0013449B007E
:1022D40003F51E737A6813440433FB60FB68002221
:1022E4005A70FB6800229A70FB7803F00F03DAB28D
:1022F400FB681A707B6893F8BC34012B01D102236C
:102304000EE07B68012283F8BC247B681B68F968B3
:10231400184602F0F9FC7B68002283F8BC240023F1
:1023240018461037BD4680BD80B584B000AF7860D4
:102334000B46FB7097F90330002B0CDAFB7803F0A3
:102344000F021346DB0013449B0038337A681344AE
:102354000433FB600CE0FB7803F00F021346DB0050
:1023640013449B0003F51E737A6813440433FB6023
:102374007B681B68F968184602F018FB0346FB7279
:10238400FB7A18461037BD4680BD80B58AB002AFCF
:10239400786039607B681B687B617B693B613A6864
:1023A4001346DB0013449B0038337A681344043328
:1023B400FB60FB681A6AFB689B699A4201D9012396
:1023C4006CE0FB689A69FB681B6AD31AFB61FB68C3
:1023D400DB68FA699A4202D9FB68DB68FB61FB6936
:1023E40003339B08BB612BE0FB689A69FB681B6A9B
:1023F400D31AFB61FB68DB68FA699A4202D9FB686D
:10240400DB68FB61FB6903339B08BB61FB681969EB
:102414003B68DAB2FB6998B27B681B69DBB2009354
:102424000346786902F06CFBFB681A69FB691A447D
:10243400FB681A61FB681A6AFB691A44FB681A6232
:102444003B685A013B69134403F510639B699BB2D3
:10245400BA699A4209D8FB681A6AFB689B699A426E
:1024640003D2FB689B69002BBED1FB689A69FB68A9
:102474001B6A9A4211D83B6803F00F03012202FA47
:1024840003F3BB603B6903F500635A6BBB68DB4332
:10249400396901F5006113404B6300231846203766
:1024A400BD4680BD80B588B000AF786039607B6878
:1024B4001B68FB61FB69BB61FB693C3304331B682C
:1024C4007B613B685A01BB69134403F530639B6825
:1024D4003B617B681B69012B7BD13B6903F00803DB
:1024E400002B15D07B69614A934240F2B9803B6965
:1024F40003F40043002B00F0B3803B685A01BB692E
:10250400134403F530631A464FF400439360A7E085
:102514003B6903F02003002B09D03B685A01BB69D7
:10252400134403F530631A462023936098E03B6913
:1025340003F02803002B40F093807B694B4A9342BD
:102544000FD93B6903F40043002B0AD03B685A01BE
:10255400BB69134403F530631A464FF40043936098
:102564007EE03A681346DB0013449B0003F51E73B8
:102574007A6813440433FB60FB68DA693B685901E9
:10258400BB690B4403F530631B69C3F31203D21A0E
:10259400FB681A623B68002B14D1FB689B69002B13
:1025A40009D17B6818687B6803F2C4431A46012189
:1025B40002F03CFD06E0FB681A69FB681B6A1A44DA
:1025C400FB681A613B68DBB21946786805F046F887
:1025D40046E07B69264A934224D13B6903F40043D5
:1025E400002B0AD03B685A01BB69134403F53063DE
:1025F4001A464FF40043936032E03B6903F0200332
:10260400002B08D03B685A01BB69134403F53063BF
:102614001A46202393603B68DBB21946786805F0BC
:102624001DF81DE03B68002B14D179683A68134605
:10263400DB0013449B000B4403F525731B68002B3C
:1026440008D17B6818687B6803F2C4431A460021EA
:1026540002F0ECFC3B68DBB21946786804F0FEFF3C
:10266400002318462037BD4680BD00BF0A30544FB2
:102674000A31544F80B586B000AF786039607B680A
:102684001B687B617B693B617B693C3304331B685A
:10269400FB603B685A013B69134403F530639B6854
:1026A400BB60FB68154A93420ED9BB6803F4004330
:1026B400002B09D03B685A013B69134403F530638E
:1026C4001A464FF400439360786804F0B5FFFB6842
:1026D4000A4A93420CD97B681B69012B08D17B6899
:1026E40018687B6803F2C4431A46012102F09EFC79
:1026F400002318461837BD4680BD00BF0A30544F2A
:1027040080B485B000AF78600B46FB7013463B8005
:102714007B681B685B6ABB60FB78002B07D13B8836
:1027240019047B681B68BA680A439A6228E07B68CC
:102734001B689B6A1B0CBA681344BB600023FB73C1
:102744000DE07B681A68FB7B40339B0013445B6895
:102754001B0CBA681344BB60FB7B0133FB73FA7B2D
:10276400FB78013B9A42ECD33B8818047B681968D8
:10277400FB78013BBA68024340339B000B445A6028
:10278400002318461437BD465DF8047B704780B4B7
:1027940083B000AF78600B467B807B681B687A88C7
:1027A4005A62002318460C37BD465DF8047B704717
:1027B40080B485B000AF78607B681B68FB607B6881
:1027C4000122C3F800257B68002283F8F424FB6807
:1027D4009B6943F00062FB689A61FB685B6D43F0A0
:1027E400805343F00303FA685365002318461437F3
:1027F400BD465DF8047B704780B584B000AF786057
:1028040039607B68002B01D10123CCE0684B1B6845
:1028140003F00F033A689A420CD9654B3A68D2B276
:102824001A70634B1B6803F00F033A689A4201D095
:102834000123B8E07B681B6803F00203002B20D05F
:102844007B681B6803F00403002B05D0594B9B687D
:10285400584A43F4E05393607B681B6803F0080311
:10286400002B05D0534B9B68524A43F4604393605A
:10287400504B9B6823F0F0027B689B684D491343DF
:102884008B607B681B6803F00103002B44D07B68DA
:102894005B68012B07D1474B1B6803F40033002B03
:1028A40019D101237FE07B685B68022B03D07B682E
:1028B4005B68032B07D13F4B1B6803F00073002BAD
:1028C40009D101236FE03B4B1B6803F00203002B8B
:1028D40001D1012367E0374B9B6823F003027B6837
:1028E4005B68344913438B60FEF7CEF9F8600AE065
:1028F400FEF7CAF90246FB68D31A41F288329342C2
:1029040001D903234FE02B4B9B6803F00C027B6837
:102914005B689B009A42EBD1254B1B6803F00F03C5
:102924003A689A420CD2224B3A68D2B21A70204BBF
:102934001B6803F00F033A689A4201D0012332E086
:102944007B681B6803F00403002B08D0194B9B68B9
:1029540023F4E0527B68DB68164913438B607B6881
:102964001B6803F00803002B09D0124B9B6823F467
:1029740060427B681B69DB000E4913438B6000F0E7
:1029840057FB02460B4B9B681B0903F00F030A49D4
:10299400CB5C22FA03F3094A1360094B1B681846FF
:1029A400FEF72EF9002318461037BD4680BD00BF40
:1029B400003C024000380240107D00080C0000205A
:1029C4001000002080B400AF034B1B681846BD46BE
:1029D4005DF8047B704700BF0C00002080B58CB00C
:1029E40000AF786000237B6200233B620023FB611D
:1029F4000023BB6100237B6100233B610023FB6058
:102A04000023FB620023BB627B681B6803F00103A5
:102A1400002B10D06F4BD3F88C3023F0C0627B684E
:102A24009B6B6C491343C1F88C307B689B6B002B08
:102A340001D10123FB627B681B6803F00203002BB6
:102A440010D0644BD3F88C3023F0C0527B68DB6B1E
:102A540060491343C1F88C307B68DB6B002B01D1D8
:102A64000123FB627B681B6803F00403002B17D06F
:102A7400584BD3F88C3023F440127B681B6B5549B8
:102A84001343C1F88C307B681B6BB3F5801F01D1F5
:102A94000123FB627B681B6B002B01D10123BB620A
:102AA4007B681B6803F00803002B17D0494BD3F84D
:102AB4008C3023F440027B685B6B46491343C1F8B6
:102AC4008C307B685B6BB3F5800F01D10123FB6213
:102AD4007B685B6B002B01D10123BB627B681B68A5
:102AE40003F02003002B00F08A800023BB60394BE5
:102AF4001B6C384A43F080531364364B1B6C03F051
:102B04008053BB60BB68344B1B68334A43F4807307
:102B14001360FEF7B9F8786208E0FEF7B5F80246EC
:102B24007B6AD31A022B01D9032378E22A4B1B6850
:102B340003F48073002BF0D0264B1B6F03F4407317
:102B44003B623B6A002B2FD07B681B6C03F4407301
:102B54003A6A9A4228D01F4B1B6F23F440733B629E
:102B64001E4B01221A601D4B00221A60194A3B6A4F
:102B74001367184B1B6F03F00103012B14D1FEF7ED
:102B840083F878620AE0FEF77FF802467B6AD31A7C
:102B940041F28832934201D9032340E20D4B1B6F6B
:102BA40003F00203002BEED07B681B6C03F440732C
:102BB400B3F5407F14D1074B9B6823F4F8127B686C
:102BC4001B6C23F0704323F44073024913438B605E
:102BD4000CE000BF0038024000700040400E474245
:102BE4004A4B9B68494A23F4F8139360474B1A6F86
:102BF4007B681B6CC3F30B03444913430B677B686B
:102C04001B6803F01003002B04D07B6893F8582052
:102C14003F4B1A607B681B6803F08003002B0AD0CB
:102C24003A4BD3F8943023F440027B68DB6C374989
:102C34001343C1F894307B681B6803F04003002BF6
:102C44000AD0324BD3F8943023F080627B689B6CBB
:102C54002E491343C1F894307B681B6803F48073D6
:102C6400002B11D0294BD3F8943023F000627B68F9
:102C74005B6D26491343C1F894307B685B6DB3F1F7
:102C8400006F01D10123BB627B681B6803F40073EE
:102C9400002B0AD01D4BD3F8943023F080527B686C
:102CA4005B6C1A491343C1F894307B681B6803F4C6
:102CB4008063002B11D0154BD3F8943023F00052CD
:102CC4007B681B6D11491343C1F894307B681B6DFD
:102CD400B3F1005F01D10123FB62FB6A012B05D034
:102CE4007B681B68B3F5006F40F0FF80094B00223E
:102CF4001A60FDF7C9FF78620EE0FDF7C5FF0246D2
:102D04007B6AD31A022B07D9032388E100380240D7
:102D1400E0114742680047427E4B1B6803F00063A2
:102D2400002BEAD17B681B6803F00103002B03D05E
:102D34007B689B6B002B09D07B681B6803F0020344
:102D4400002B28D07B68DB6B002B24D1714BD3F88C
:102D540084301B0C03F0030301335B00FB616D4BF8
:102D6400D3F884301B0E03F00F03BB617B685A68F1
:102D74007B689B689B011A43FB695B08013B1B044E
:102D84001A43BB691B061A437B685B691B076149CD
:102D94001343C1F884307B681B6803F00403002BE1
:102DA40004D07B681B6BB3F5801F0AD07B681B685B
:102DB40003F00803002B35D07B685B6BB3F5800F01
:102DC40030D1544BD3F884301B0C03F0030301338C
:102DD4005B00FB614F4BD3F884301B0F03F00703F8
:102DE4007B617B685A687B689B689B011A43FB691B
:102DF4005B08013B1B041A437B681B691B061A43CF
:102E04007B691B0743491343C1F88430414BD3F812
:102E14008C3023F01F027B689B6A013B3D491343BE
:102E2400C1F88C307B681B6803F48063002B29D0C5
:102E34007B681B6DB3F1005F24D1364BD3F884302B
:102E44001B0C03F0030301335B00BB61314BD3F86C
:102E540084301B0F03F007037B617B685A687B682F
:102E64009B689B011A437B68DB685B08013B1B047E
:102E74001A43BB691B061A437B691B072549134385
:102E8400C1F884307B681B6803F40063002B16D000
:102E94007B685A687B689B689B011A437B68DB6884
:102EA4005B08013B1B041A437B681B691B061A431E
:102EB4007B685B691B0717491343C1F88430164BC1
:102EC40001221A60FDF7E0FE786208E0FDF7DCFEFF
:102ED40002467B6AD31A022B01D903239FE00D4BD0
:102EE4001B6803F00063002BF0D0BB6A012B40F099
:102EF40095800A4B00221A60FDF7C6FE78620FE047
:102F0400FDF7C2FE02467B6AD31A022B08D90323BB
:102F140085E000BF00380240680047427000474225
:102F2400414B1B6803F00053B3F1005FE8D07B68AA
:102F34001B6803F00403002B03D07B681B6B002B7E
:102F440009D07B681B6803F00803002B2BD07B6837
:102F54005B6B002B27D1344BD3F888301B0C03F068
:102F6400030301335B003B617B689A697B68DB691F
:102F74009B011A433B695B08013B1B041A437B68B2
:102F84005B6A1B0628491343C1F88830264BD3F8E3
:102F94008C3023F4F8527B68DB6A013B1B02224924
:102FA4001343C1F88C307B681B6803F48073002BD7
:102FB4001DD07B685B6DB3F1006F18D11A4BD3F849
:102FC40088301B0E03F00F03FB607B689A697B68F3
:102FD400DB699B011A437B681B6A5B08013B1B048A
:102FE4001A43FB681B0610491343C1F888300F4B82
:102FF40001221A60FDF748FE786208E0FDF744FEFE
:1030040002467B6AD31A022B01D9032307E0064B3D
:103014001B6803F00053B3F1005FEFD1002318469F
:103024003037BD4680BD00BF0038024070004742C3
:103034002DE9B04FA6B000AF0023C7F88C300023B1
:10304400C7F894300023C7F888300023C7F88430C9
:103054000023C7F89030C84B9B6803F00C030C2B7B
:1030640000F27E8101A252F823F000BFA5300008CF
:10307400653300086533000865330008AD30000887
:10308400653300086533000865330008B53000086F
:103094006533000865330008653300081F320008F3
:1030A400B64BC7F890305FE1B54BC7F890305BE1A1
:1030B400B14B5B6803F03F03C7F88C30AE4B5B68E1
:1030C40003F48003002B31D0AB4B5B689B090022D7
:1030D400BB66FA66BB6EC3F308033B6600237B66DC
:1030E400A74BD7E918452A4603FB02F200232146E1
:1030F40001FB03F31344A24A2146A1FB0212FA671F
:103104000A46BA67FA6F1344FB67D7F88C3000227B
:10311400BB65FA65D7E91623D7E91E01FDF770F8F8
:1031240002460B461346C7F8943064E0924B5B6842
:103134009B0900223B657A653B6DC3F30803BB64BE
:103144000023FB64D7E9124522462B464FF00000CA
:103154004FF00001590141EAD261500102460B4689
:103164002146511A3961294663EB01037B614FF013
:1031740000024FF00003D7E904AB59468B015146D6
:1031840043EA916351468A015146B2EB010859461C
:1031940063EB01094FF000024FF000034FEAC9034B
:1031A40043EA58734FEAC80290469946234618EBFF
:1031B4000303BB602B4649EB0303FB604FF00002A3
:1031C4004FF00003D7E9024529468B02214643EA22
:1031D400915321468A0210461946D7F88C300022B2
:1031E4003B647A64D7E91023FDF70AF802460B46DC
:1031F4001346C7F89430604B5B681B0C03F0030361
:1032040001335B00C7F88830D7F89420D7F88830AA
:10321400B2FBF3F3C7F89030A6E0574B5B6803F0BA
:103224003F03C7F88C30544B5B6803F48003002BD6
:103234002AD0514B5B689B090022BB63FA63BB6BCA
:10324400C3F3080000214E4B03FB01F2002300FBF3
:1032540003F313444A4AA0FB02127A670A463A6708
:103264007A6F13447B67D7F88C3000223B637A6310
:10327400D7E90C23D7E91C01FCF7C2FF02460B4631
:103284001346C7F894305BE03B4B5B689B09002214
:10329400BB62FA62BB6AC3F308033B6200237B622E
:1032A400D7E9088942464B464FF000004FF0000131
:1032B400590141EAD261500102460B464146B2EB44
:1032C400010A494663EB010B4FF000024FF0000383
:1032D4004FEA8B1343EA9A634FEA8A12B2EB0A0469
:1032E40063EB0B054FF000024FF00003EB0043EAE1
:1032F4005473E20014461D464346E3183B604B46B4
:1033040045EB03037B604FF000024FF00003D7E965
:10331400004529468B02214643EA915321468A02FD
:1033240010461946D7F88C300022BB61FA61D7E900
:103334000623FCF765FF02460B461346C7F8943094
:103344000D4B5B681B0F03F00703C7F88430D7F8F5
:103354009420D7F88430B2FBF3F3C7F8903003E03D
:10336400064BC7F8903000BFD7F89030184698370E
:10337400BD46BDE8B08F00BF003802400024F40011
:10338400809FD50080B586B000AF78607B68002B45
:1033940001D101238DE27B681B6803F00103002B3C
:1033A40000F08380944B9B6803F00C03042B19D02A
:1033B400914B9B6803F00C03082B06D18E4B5B6882
:1033C40003F48003B3F5800F0CD08B4B9B6803F0A0
:1033D4000C030C2B12D1884B5B6803F48003B3F508
:1033E400800F0BD1844B1B6803F40033002B5BD09C
:1033F4007B685B68002B57D101235AE27B685B68CA
:10340400B3F5803F06D17C4B1B687B4A43F4803381
:1034140013601DE07B685B68B3F5A02F0CD1764B7D
:103424001B68754A43F480231360734B1B68724A0C
:1034340043F4803313600BE06F4B1B686E4A23F434
:10344400803313606C4B1B686B4A23F48023136036
:103454007B685B68002B13D0FDF716FC386108E02D
:10346400FDF712FC02463B69D31A642B01D90323EE
:103474001FE2614B1B6803F40033002BF0D014E00F
:10348400FDF702FC386108E0FDF7FEFB02463B69EC
:10349400D31A642B01D903230BE2574B1B6803F4A3
:1034A4000033002BF0D100E000BF7B681B6803F001
:1034B4000203002B6FD0504B9B6803F00C03002BCE
:1034C40017D04D4B9B6803F00C03082B05D14A4BD6
:1034D4005B6803F48003002B0BD0474B9B6803F01D
:1034E4000C030C2B1CD1444B5B6803F48003002BAE
:1034F40016D1414B1B6803F00203002B05D07B68F7
:10350400DB68012B01D00123D3E13B4B1B6823F083
:10351400F8027B681B69DB00374913430B603AE010
:103524007B68DB68002B20D0344B01221A60FDF746
:10353400ABFB386108E0FDF7A7FB02463B69D31AF1
:10354400022B01D90323B4E12B4B1B6803F00203C4
:10355400002BF0D0284B1B6823F0F8027B681B6912
:10356400DB00254913430B6015E0244B00221A604D
:10357400FDF78AFB386108E0FDF786FB02463B69EC
:10358400D31A022B01D9032393E11B4B1B6803F0CD
:103594000203002BF0D17B681B6803F00803002BA7
:1035A40036D07B685B69002B16D0154B01221A605C
:1035B400FDF76AFB386108E0FDF766FB02463B69EC
:1035C400D31A022B01D9032373E10B4B5B6F03F076
:1035D4000203002BF0D01BE0094B00221A60FDF718
:1035E40053FB38610EE0FDF74FFB02463B69D31AEB
:1035F400022B07D903235CE1003802400000474254
:10360400800E47428A4B5B6F03F00203002BEAD122
:103614007B681B6803F00403002B00F097800023F1
:10362400FB75834B1B6C03F08053002B0FD10023DD
:10363400BB607F4B1B6C7E4A43F0805313647C4B0E
:103644001B6C03F08053BB60BB680123FB75794B93
:103654001B6803F48073002B18D1764B1B68754AE2
:1036640043F480731360FDF70FFB386108E0FDF746
:103674000BFB02463B69D31A022B01D9032318E141
:103684006C4B1B6803F48073002BF0D07B689B6841
:10369400012B06D1664B1B6F654A43F00103136788
:1036A4001CE07B689B68052B0CD1614B1B6F604A47
:1036B40043F0040313675E4B1B6F5D4A43F0010341
:1036C40013670BE05A4B1B6F594A23F0010313672E
:1036D400574B1B6F564A23F0040313677B689B68A0
:1036E400002B15D0FDF7D0FA38610AE0FDF7CCFACB
:1036F40002463B69D31A41F28832934201D903232B
:10370400D7E04B4B1B6F03F00203002BEED014E009
:10371400FDF7BAFA38610AE0FDF7B6FA02463B69EA
:10372400D31A41F28832934201D90323C1E0404BBA
:103734001B6F03F00203002BEED1FB7D012B05D19F
:103744003B4B1B6C3A4A23F0805313647B689B69A0
:10375400002B00F0AD80364B9B6803F00C03082B64
:1037640060D07B689B69022B45D1334B00221A60E1
:10377400FDF78AFA386108E0FDF786FA02463B69EC
:10378400D31A022B01D9032393E0294B1B6803F0BE
:103794000073002BF0D17B68DA697B681B6A1A43DB
:1037A4007B685B6A9B011A437B689B6A5B08013BED
:1037B4001B041A437B68DB6A1B061A437B681B6B7A
:1037C4001B071B4913434B601B4B01221A60FDF777
:1037D4005BFA386108E0FDF757FA02463B69D31AF1
:1037E400022B01D9032364E0114B1B6803F000731F
:1037F400002BF0D05CE0104B00221A60FDF744FA75
:10380400386108E0FDF740FA02463B69D31A022BFF
:1038140001D903234DE0064B1B6803F00073002B12
:10382400F0D145E07B689B69012B07D1012340E07F
:103834000038024000700040600047421F4B5B6844
:10384400FB607B689B69012B30D0FB6803F480022A
:103854007B68DB699A4229D1FB6803F03F027B68ED
:103864001B6A9A4222D1FA6847F6C07313407A68F9
:10387400526A9201934219D1FB6803F440327B6887
:103884009B6A5B08013B1B049A420FD1FB6803F05F
:1038940070627B68DB6A1B069A4207D1FB6803F0FF
:1038A400E0427B681B6B1B079A4201D0012300E0B6
:1038B400002318461837BD4680BD00BF00380240BB
:1038C40084B080B584B000AF786007F11C0080E854
:1038D4000E003B6B012B22D17B689B6B23F480325F
:1038E4007B689A637B68DB6823F4840323F04003DA
:1038F4007A68D3607B68DB6823F440127B68DA6003
:10390400FB6C012B05D17B68DB6843F480127B6878
:10391400DA60786801F0E8FB0346FB731AE07B6821
:10392400DB6843F040027B68DA60786801F0DCFB16
:103934000346FB733B6C002B06D17B689B6B43F403
:1039440080327B689A6305E07B689B6B23F480324A
:103954007B689A63BB6A012B0BD17B689B6843F03D
:1039640006027B689A607B689B6843F020027B6850
:103974009A60FB7B18461037BD46BDE8804004B012
:103984007047000080B487B000AFF860B960134698
:10399400FB71FB79022B65D1BB68414A934206D97E
:1039A400BB68404A934202D20F237B6162E0BB684A
:1039B4003C4A934206D3BB683B4A934202D20E234D
:1039C4007B6157E0BB68384A934206D3BB68374AE9
:1039D400934202D20D237B614CE0BB68334A93428D
:1039E40006D3BB68324A934202D80C237B6141E080
:1039F400BB682F4A934206D9BB682E4A934202D829
:103A04000B237B6136E0BB682A4A934206D9BB6824
:103A1400294A934202D80A237B612BE0BB68264AD9
:103A2400934206D9BB68254A934202D209237B619B
:103A340020E0BB68214A934206D3BB68204A9342E4
:103A440002D808237B6115E0BB681D4A934206D95E
:103A5400BB681C4A934202D207237B610AE0062317
:103A64007B6107E0FB79002B02D109237B6101E034
:103A740009237B61FB68DB6823F47052FB68DA601E
:103A8400FB68DA687B699B0203F470531A43FB6892
:103A9400DA60002318461C37BD465DF8047B704786
:103AA400BFACD800C0E1E4000024F4008073060138
:103AB4009F491A01FF2C31013FA44C0100366E01CD
:103AC4001FABA6010048E80180B483B000AF786062
:103AD4007B689B6843F001027B689A600023184668
:103AE4000C37BD465DF8047B704780B483B000AFEB
:103AF40078607B689B6823F001027B689A600023EE
:103B040018460C37BD465DF8047B704780B584B019
:103B140000AF78600B46FB700023FB607B68DB68BA
:103B240023F0C0427B68DA60FB78012B15D17B68F7
:103B3400DB6843F000527B68DA600120FDF7B0F8DF
:103B4400FB680133FB60786801F03FFA0346012B00
:103B54001ED0FB68312BF0D91AE0FB78002B15D16D
:103B64007B68DB6843F080427B68DA600120FDF704
:103B740097F8FB680133FB60786801F026FA034686
:103B8400002B05D0FB68312BF0D901E0012305E0BF
:103B9400FB68322B01D1012300E0002318461037C3
:103BA400BD4680BD84B080B586B000AF786007F1B3
:103BB400240080E80E000023FB757B68FB60002373
:103BC4003B6109E07A683B6940339B00134400225F
:103BD4005A603B6901333B613B690E2BF2D9FB6CA4
:103BE400002B1CD1FB6803F500635B68FA6802F5DF
:103BF400006243F0020353607B689B6B23F4001262
:103C04007B689A637B681B6843F040027B681A6098
:103C14007B681B6843F080027B681A6005E07B6860
:103C24009B6B43F400127B689A63FB6803F5606343
:103C34001A4600231360FB6803F500631946FB680A
:103C440003F500631A460B681360BB6B012B0CD1A0
:103C5400FB6A002B04D10021786800F065F908E0C4
:103C64000121786800F060F903E00321786800F02E
:103C74005BF91021786800F0F3F80346002B01D0BB
:103C84000123FB75786800F01FF90346002B01D06F
:103C94000123FB75FB6803F500631A4600231361D7
:103CA400FB6803F500631A4600235361FB6803F5C0
:103CB40000631A460023D36100233B6143E03B6960
:103CC4005A01FB68134403F510631B6803F00043B7
:103CD400B3F1004F18D13B69002B0AD13B695A015B
:103CE400FB68134403F510631A464FF00063136036
:103CF40013E03B695A01FB68134403F510631A4649
:103D04004FF09043136008E03B695A01FB68134489
:103D140003F510631A46002313603B695A01FB68DC
:103D2400134403F510631A46002313613B695A01D7
:103D3400FB68134403F510631A464FF67F33936010
:103D44003B6901333B617B6A3A699A42B7D30023EA
:103D54003B6143E03B695A01FB68134403F530635C
:103D64001B6803F00043B3F1004F18D13B69002BEB
:103D74000AD13B695A01FB68134403F530631A46C0
:103D84004FF00063136013E03B695A01FB6813446E
:103D940003F530631A464FF09043136008E03B6923
:103DA4005A01FB68134403F530631A460023136079
:103DB4003B695A01FB68134403F530631A46002338
:103DC40013613B695A01FB68134403F530631A46D7
:103DD4004FF67F3393603B6901333B617B6A3A69F9
:103DE4009A42B7D3FB6803F500631B69FA6802F5CE
:103DF400006223F4807313617B6800229A617B68FC
:103E04006FF080425A613B6B002B05D17B689B6944
:103E140043F010027B689A617B689A690F4B1343E5
:103E24007A689361FB6B002B05D07B689B6943F038
:103E340008027B689A61FB6C012B07D17B689B6944
:103E440043F0804343F004037A689361FB7D184692
:103E54001837BD46BDE8804004B0704700383C8048
:103E640080B485B000AF786039600023FB60FB68E4
:103E74000133FB60FB68134A934201D903231BE01F
:103E84007B681B69002BF2DA0023FB603B689B0113
:103E940043F020027B681A61FB680133FB60FB6816
:103EA400084A934201D9032306E07B681B6903F0A7
:103EB4002003202BF0D0002318461437BD465DF8AC
:103EC400047B7047400D030080B485B000AF786078
:103ED4000023FB60FB680133FB60FB68114A9342DB
:103EE40001D9032318E07B681B69002BF2DA002355
:103EF400FB607B6810221A61FB680133FB60FB687E
:103F0400084A934201D9032306E07B681B6903F046
:103F14001003102BF0D0002318461437BD465DF86B
:103F2400047B7047400D030080B485B000AF786017
:103F34000B46FB707B68FB60FB6803F500631A6843
:103F4400FB78F96801F5006113430B600023184600
:103F54001437BD465DF8047B704780B487B000AF6A
:103F640078607B683B613B6903F500639B6803F001
:103F74000603FB60FB68002B02D10023FB750AE0FB
:103F8400FB68022B02D0FB68062B02D10223FB75CF
:103F940001E00F23FB75FB7D18461C37BD465DF819
:103FA400047B704780B485B000AF786039607B686B
:103FB400FB603B681B78BB603B685B78012B3AD1A4
:103FC400FB6803F50063DA693B681B7803F00F03B1
:103FD400012101FA03F39BB2F96801F5006113436F
:103FE400CB61BB685A01FB68134403F510631B687B
:103FF40003F40043002B55D1BB685A01FB681344FA
:1040040003F510631A683B68DB68C3F30A013B6875
:104014001B799B041943BB689B050B431343BA6884
:104024005101FA680A4402F5106243F0805343F4E4
:104034000043136036E0FB6803F50063DA693B680C
:104044001B7803F00F03012101FA03F31B04F96841
:1040540001F500611343CB61BB685A01FB6813444B
:1040640003F530631B6803F40043002B1AD1BB68CB
:104074005A01FB68134403F530631A683B68DB6834
:10408400C3F30A013B681B799B040B431343BA68CF
:104094005101FA680A4402F5306243F0805343F454
:1040A40000431360002318461437BD465DF8047BB3
:1040B4007047000080B485B000AF786039607B68D9
:1040C400FB603B681B78BB603B685B78012B61D16C
:1040D400BB685A01FB68134403F510631B6803F0C3
:1040E4000043B3F1004F1FD1BB685A01FB6813446E
:1040F40003F510631B68BA685101FA680A4402F5B3
:10410400106243F000631360BB685A01FB681344F8
:1041140003F510631B68BA685101FA680A4402F592
:10412400106243F080431360FB6803F50063DA6BAD
:104134003B681B7803F00F03012101FA03F39BB2E0
:10414400DB43F96801F500611340CB63FB6803F5B9
:104154000063DA693B681B7803F00F03012101FA5D
:1041640003F39BB2DB43F96801F500611340CB61B3
:10417400BB685A01FB68134403F510631A68BB68F3
:104184005901FB680B4403F510631946354B134082
:104194000B6060E0BB685A01FB68134403F53063AD
:1041A4001B6803F00043B3F1004F1FD1BB685A01F1
:1041B400FB68134403F530631B68BA685101FA685D
:1041C4000A4402F5306243F000631360BB685A018D
:1041D400FB68134403F530631B68BA685101FA683D
:1041E4000A4402F5306243F080431360FB6803F530
:1041F4000063DA6B3B681B7803F00F03012101FABB
:1042040003F31B04DB43F96801F500611340CB633E
:10421400FB6803F50063DA693B681B7803F00F035E
:10422400012101FA03F31B04DB43F96801F5006182
:104234001340CB61BB685A01FB68134403F5306338
:104244001A68BB685901FB680B4403F530631946CF
:10425400054B13400B60002318461437BD465DF828
:10426400047B7047007833EC0078F3EF80B58AB0B4
:1042740002AFF860B9601346FB71FB68FB61BB6871
:104284001B78BB61BB685B78012B40F05C81BB6829
:104294009B69002B32D1BB695A01FB69134403F5B6
:1042A40010631B69BA695101FA690A4402F5106284
:1042B40023F0FF5323F4C0131361BB695A01FB6954
:1042C400134403F510631B69BA695101FA690A447E
:1042D40002F5106243F400231361BB695A01FB69C0
:1042E400134403F510631B69BA695101FA690A445E
:1042F40002F51062DB0CDB04136174E0BB695A0144
:10430400FB69134403F510631B69BA695101FA6927
:104314000A4402F51062DB0CDB041361BB695A0129
:10432400FB69134403F510631B69BA695101FA6907
:104334000A4402F5106223F0FF5323F4C0131361FF
:10434400BB695A01FB69134403F510631A69BB681E
:104354009969BB68DB680B44591EBB68DB68B1FB19
:10436400F3F3D9049D4B0B40B9694801F969014441
:1043740001F5106113430B61BB695A01FB691344D6
:1043840003F510631A69BB689B69C3F31203B96927
:104394004801F969014401F5106113430B61BB68DD
:1043A4001B79012B1FD1BB695A01FB69134403F527
:1043B40010631B69BA695101FA690A4402F5106273
:1043C40023F0C0431361BB695A01FB69134403F52D
:1043D40010631B69BA695101FA690A4402F5106253
:1043E40043F000531361FB79012B4BD1BB685B692C
:1043F400002B09D0BB695A01FB69134403F5106310
:104404001A46BB685B695361BB681B79012B28D1D1
:10441400FB6903F500639B6803F48073002B10D1E0
:10442400BB695A01FB69134403F510631B68BA693D
:104434005101FA690A4402F5106243F00053136013
:104444000FE0BB695A01FB69134403F510631B6851
:10445400BA695101FA690A4402F5106243F08053C3
:104464001360BB695A01FB69134403F510631B68AD
:10447400BA695101FA690A4402F5106243F004432F
:10448400136033E1BB695A01FB69134403F51063FC
:104494001B68BA695101FA690A4402F5106243F0D3
:1044A40004431360BB681B79012B15D0BB689B695F
:1044B400002B00F01B81FB6903F500635A6BBB689A
:1044C4001B7803F00F03012101FA03F3F96901F5E5
:1044D400006113434B6309E1FB6903F500639B68C7
:1044E40003F48073002B10D1BB695A01FB69134498
:1044F40003F510631B68BA695101FA690A4402F5AD
:10450400106243F0005313600FE0BB695A01FB696A
:10451400134403F510631B68BA695101FA690A442C
:1045240002F5106243F080531360BB681969BB68DD
:104534001A78BB689B6998B2FB7900930346F868C4
:1045440000F0DEFAD2E0BB695A01FB69134403F5BB
:1045540030631B69BA695101FA690A4402F5306291
:10456400DB0CDB041361BB695A01FB69134403F5DB
:1045740030631B69BA695101FA690A4402F5306271
:1045840023F0FF5323F4C0131361BB689B69002B12
:1045940026D1BB695A01FB69134403F530631A69D8
:1045A400BB68DB68C3F31203B9694801F9690144C4
:1045B40001F5306113430B61BB695A01FB69134474
:1045C40003F530631B69BA695101FA690A4402F5BB
:1045D400306243F4002313613AE000BF0000F81F87
:1045E400BB689A69BB68DB6813445A1EBB68DB6806
:1045F400B2FBF3F3FB82BB68DB68FA8A03FB02F2CB
:10460400BB68DA61BB695A01FB69134403F5306383
:104614001A69FB8AD904384B0B40B9694801F96916
:10462400014401F5306113430B61BB695A01FB6915
:10463400134403F530631A69BB68DB69C3F31203DF
:10464400B9694801F969014401F5306113430B610B
:10465400FB79012B0DD1BB681B69002B09D0BB680A
:104664001969BB695A01FB69134403F530630A46AF
:104674005A61BB681B79012B28D1FB6903F50063E0
:104684009B6803F48073002B10D1BB695A01FB694A
:10469400134403F530631B68BA695101FA690A448B
:1046A40002F5306243F0005313600FE0BB695A0116
:1046B400FB69134403F530631B68BA695101FA6955
:1046C4000A4402F5306243F080531360BB695A0117
:1046D400FB69134403F530631B68BA695101FA6935
:1046E4000A4402F5306243F0044313600023184681
:1046F4002037BD4680BD00BF0000F81F80B487B0DE
:1047040000AFF860B9601346FB71FB687B61BB685E
:104714001B783B61BB685B78012B40F0CE80BB68A3
:104724009B69002B32D13B695A017B69134403F521
:1047340010631B693A6951017A690A4402F51062EF
:1047440023F0FF5323F4C01313613B695A017B69BF
:10475400134403F510631B693A6951017A690A44E9
:1047640002F5106243F4002313613B695A017B692B
:10477400134403F510631B693A6951017A690A44C9
:1047840002F51062DB0CDB0413614EE03B695A0155
:104794007B69134403F510631B693A6951017A6913
:1047A4000A4402F51062DB0CDB0413613B695A0115
:1047B4007B69134403F510631B693A6951017A69F3
:1047C4000A4402F5106223F0FF5323F4C01313616B
:1047D400BB689A69BB68DB689A4203D9BB68DA682C
:1047E400BB689A613B695A017B69134403F5106302
:1047F4001B693A6951017A690A4402F5106243F46B
:10480400002313613B695A017B69134403F5106368
:104814001A69BB689B69C3F3120339694801796952
:10482400014401F5106113430B61FB79012B1ED187
:10483400BB685B69002B09D03B695A017B6913444F
:1048440003F510631A46BB685B6953613B695A01FF
:104854007B69134403F510631B683A6951017A6953
:104864000A4402F5106243F00443136097E03B6985
:104874005A017B69134403F510631B683A695101BB
:104884007A690A4402F5106243F004431360BB687A
:104894009B69002B00F083807B6903F500635A6BEE
:1048A400BB681B7803F00F03012101FA03F3796954
:1048B40001F5006113434B6371E03B695A017B6965
:1048C400134403F530631B693A6951017A690A4458
:1048D40002F53062DB0CDB0413613B695A017B692E
:1048E400134403F530631B693A6951017A690A4438
:1048F40002F5306223F0FF5323F4C0131361BB6845
:104904009B69002B03D0BB68DA68BB689A61BB68FB
:10491400DA68BB68DA613B695A017B69134403F5C1
:1049240030631B693A6951017A690A4402F53062BD
:1049340043F4002313613B695A017B69134403F573
:1049440030631A69BB68DB69C3F312033969480130
:104954007969014401F5306113430B61FB79012B43
:104964000DD1BB681B69002B09D0BB6819693B6971
:104974005A017B69134403F530630A465A613B6963
:104984005A017B69134403F530631B683A6951018A
:104994007A690A4402F5306243F004431360002349
:1049A40018461C37BD465DF8047B704780B487B059
:1049B40000AF786039600023FB600023FB757B68DF
:1049C4003B613B685B78012B4AD13B681B785A01F9
:1049D4003B69134403F510631B6803F00043B3F110
:1049E400004F40F086803B681B785A013B691344B2
:1049F40003F510631B683A68127851013A690A4456
:104A040002F5106243F0006313603B681B785A019F
:104A14003B69134403F510631B683A68127851012B
:104A24003A690A4402F5106243F080431360FB685C
:104A34000133FB60FB6842F21072934202D90123F6
:104A4400FB7556E03B681B785A013B69134403F538
:104A540010631B6803F00043B3F1004FE7D048E054
:104A64003B681B785A013B69134403F530631B68A8
:104A740003F00043B3F1004F3BD13B681B785A016C
:104A84003B69134403F530631B683A68127851019B
:104A94003A690A4402F5306243F0006313603B68EC
:104AA4001B785A013B69134403F530631B683A6869
:104AB400127851013A690A4402F5306243F08043A6
:104AC4001360FB680133FB60FB6842F2107293428F
:104AD40002D90123FB750CE03B681B785A013B6942
:104AE400134403F530631B6803F00043B3F1004F34
:104AF400E7D0FB7D18461C37BD465DF8047B704744
:104B040080B489B000AFF860B96011461A460B460C
:104B1400FB711346BB80FB687B61BB68FB6197F844
:104B24002830002B23D1BB8803339B083B6100232F
:104B3400BB6118E0FB791A037B69134403F58053C6
:104B44001A46FB691B681360FB690133FB61FB694F
:104B54000133FB61FB690133FB61FB690133FB61D9
:104B6400BB690133BB61BA693B699A42E2D3002352
:104B740018462437BD465DF8047B704780B48BB07B
:104B840000AFF860B9601346FB80FB68BB61BB688B
:104B94007B62FB889B089BB27B61FB8803F0030369
:104BA400FB8300233B6214E0BB6903F580531A685E
:104BB4007B6A1A607B6A01337B627B6A01337B62A6
:104BC4007B6A01337B627B6A01337B623B6A01331C
:104BD4003B623A6A7B699A42E6D3FB8B002B1ED078
:104BE40000233B62BB6903F580531A4607F11003A7
:104BF40012681A603A693B6ADBB2DB0022FA03F3FB
:104C0400DAB27B6A1A703B6A01333B627B6A013316
:104C14007B62FB8B013BFB83FB8B002BEAD17B6A22
:104C240018462C37BD465DF8047B704780B485B0C8
:104C340000AF786039607B68FB603B681B78BB60C1
:104C44003B685B78012B2CD1BB685A01FB68134489
:104C540003F510631B68002B12DBBB68002B0FD01D
:104C6400BB685A01FB68134403F510631B68BA68F8
:104C74005101FA680A4402F5106223F0804313607C
:104C8400BB685A01FB68134403F510631B68BA68D8
:104C94005101FA680A4402F5106243F400131360E8
:104CA4002BE0BB685A01FB68134403F530631B68AF
:104CB400002B12DBBB68002B0FD0BB685A01FB68CA
:104CC400134403F530631B68BA685101FA680A4457
:104CD40002F5306223F080431360BB685A01FB681D
:104CE400134403F530631B68BA685101FA680A4437
:104CF40002F5306243F4001313600023184614379E
:104D0400BD465DF8047B704780B485B000AF786021
:104D140039607B68FB603B681B78BB603B685B78F1
:104D2400012B28D1BB685A01FB68134403F51063B7
:104D34001B68BA685101FA680A4402F5106223F448
:104D4400001313603B681B79032B03D03B681B796A
:104D5400022B38D1BB685A01FB68134403F5106376
:104D64001B68BA685101FA680A4402F5106243F0FC
:104D74008053136027E0BB685A01FB68134403F5B2
:104D840030631B68BA685101FA680A4402F530625C
:104D940023F4001313603B681B79032B03D03B6897
:104DA4001B79022B0FD1BB685A01FB68134403F52E
:104DB40030631B68BA685101FA680A4402F530622C
:104DC40043F080531360002318461437BD465DF842
:104DD400047B704780B485B000AF78600B46FB70ED
:104DE4007B68FB60FB6803F500631B68FA6802F5E7
:104DF400006223F4FE631360FB6803F500631A6822
:104E0400FB781B0103F4FE63F96801F500611343A9
:104E14000B60002318461437BD465DF8047B7047C9
:104E240080B485B000AF78607B68FB60FB6803F5F5
:104E340060631B68FA6802F5606223F00303136081
:104E4400FB6803F500635B68FA6802F5006223F00F
:104E540002035360002318461437BD465DF8047BF3
:104E6400704780B485B000AF78607B68FB60FB68F6
:104E740003F560631B68FA6802F5606223F00303BC
:104E84001360FB6803F500635B68FA6802F500626F
:104E940043F002035360002318461437BD465DF8FF
:104EA400047B704780B485B000AF78607B685B6931
:104EB400FB607B689B69FA681340FB60FB681846DB
:104EC4001437BD465DF8047B704780B485B000AFED
:104ED40078607B68FB60FB6803F500639B69BB60DB
:104EE400FB6803F50063DB69BA681340BB60BB6809
:104EF4001B0C18461437BD465DF8047B704780B41C
:104F040085B000AF78607B68FB60FB6803F50063E5
:104F14009B69BB60FB6803F50063DB69BA681340F7
:104F2400BB60BB689BB218461437BD465DF8047B72
:104F3400704780B485B000AF78600B46FB707B6827
:104F4400FB60FB785A01FB68134403F530639B68EC
:104F5400BB60FB6803F500635B69BA681340BB6020
:104F6400BB6818461437BD465DF8047B704780B4AF
:104F740087B000AF78600B46FB707B687B617B6910
:104F840003F500631B693B617B6903F500635B6B9D
:104F9400FB60FB7803F00F03FA6822FA03F3DB01EA
:104FA400DBB23A6913433B61FB785A017B691344D2
:104FB40003F510639B683A691340BB60BB681846ED
:104FC4001C37BD465DF8047B704780B483B000AFE6
:104FD40078607B685B6903F0010318460C37BD46B3
:104FE4005DF8047B704780B485B000AF78607B685F
:104FF400FB60FB6803F510631B68FA6802F5106236
:1050040023F4FF6323F007031360FB6803F50063D5
:105014005B68FA6802F5006243F48073536000230E
:1050240018461437BD465DF8047B704780B487B0DA
:1050340000AFF8600B467A60FB72FB687B61FB682B
:105044003C3304331B683B613B69264A93420AD9CB
:105054007B6903F530631B6803F00043B3F1004F31
:1050640001D1002337E07B6903F530631A4600233E
:1050740013617B6903F530631B697A6902F5306259
:1050840043F4002313617B6903F530631B697A6978
:1050940002F5306243F0180313617B6903F5306352
:1050A4001B697A6902F5306243F0C0431361FB7AED
:1050B400012B0FD17B6903F530631A467B6853617A
:1050C4007B6903F530631B687A6902F5306243F04B
:1050D40080231360002318461C37BD465DF8047B0B
:1050E400704700BF0A30544F80B485B000AF786079
:1050F4000023FB60FB680133FB60FB68134A9342A7
:1051040001D903231BE07B681B69002BF2DA00231F
:10511400FB607B681B6943F001027B681A61FB68D2
:105124000133FB60FB68094A934201D9032306E07B
:105134007B681B6903F00103012BF0D000231846A0
:105144001437BD465DF8047B704700BF400D030073
:1051540080B584B000AF78600B46FB704FF40770E5
:1051640002F034FDF860FB68002B09D17B68D3F8AA
:10517400D4227B68B032002143F822100223D4E009
:105184004FF407720021F86802F088FD7B68D3F8B9
:10519400D4227B68B032F96843F822107B68D3F8D4
:1051A400D4227B68B03253F822207B68C3F8BC2237
:1051B4007B681B7C002B38D15E4B19784FF400734D
:1051C4000222786802F091FB5A4B1B7803F00F021D
:1051D400796813469B0013449B000B44243301223B
:1051E4001A80554B19784FF400730222786802F044
:1051F4007CFB514B1B7803F00F02796813469B002C
:1052040013449B000B4403F5B27301221A804B4BE9
:105214001B7803F00F02796813469B0013449B002C
:105224000B44263310221A8035E0424B1978402370
:105234000222786802F059FB3E4B1B7803F00F0200
:10524400796813469B0013449B000B4424330122CA
:105254001A80394B197840230222786802F045FB02
:10526400354B1B7803F00F02796813469B001344F7
:105274009B000B4403F5B27301221A802F4B1B7859
:1052840003F00F02796813469B0013449B000B4400
:10529400263310221A80294B1978082303227868B0
:1052A40002F023FB254B1B7803F00F0279681346A9
:1052B4009B0013449B000B44243301221A80FB6897
:1052C4000022C3F804227B68D3F8D4327A68B0335E
:1052D4009B0013445B681B689847FB680022C3F873
:1052E4001422FB680022C3F81822FB68D3F80432A6
:1052F400002B01D1022318E07B681B7C002B0AD110
:105304000D4B1978FB68D3F804224FF400737868C6
:1053140002F0DAFB08E0084B1978FB68D3F80422A2
:105324004023786802F0D0FB002318461037BD46AE
:1053340080BD00BF9F000020A0000020A10000202D
:1053440080B582B000AF78600B46FB703A4B1B7897
:105354001946786802F0EFFA374B1B7803F00F0216
:10536400796813469B0013449B000B4424330022AA
:105374001A80324B1B781946786802F0DCFA2F4BFE
:105384001B7803F00F02796813469B0013449B00BB
:105394000B4403F5B27300221A80294B1B7819467B
:1053A400786802F0C8FA264B1B7803F00F0279687C
:1053B40013469B0013449B000B44243300221A80A1
:1053C4001F4B1B7803F00F02796813469B001344AC
:1053D4009B000B44263300221A807B68D3F8D42226
:1053E4007B68B03253F82230002B1FD07B68D3F88F
:1053F400D4327A68B0339B0013445B685B68984787
:105404007B68D3F8D4227B68B03253F82230184634
:1054140002F0EAFB7B68D3F8D4227B68B032002127
:1054240043F822107B680022C3F8BC2200231846EC
:105434000837BD4680BD00BF9F000020A0000020AB
:10544400A100002080B586B000AF786039607B6829
:10545400D3F8D4227B68B03253F822303B61002366
:105464007B7300237B810023FB753B69002B01D1F7
:105474000323BFE03B681B7803F06003002B50D08C
:10548400202B40F0AF803B68DB88002B3AD03B6890
:105494001B785BB2002B1BDA7B68D3F8D4327A68B2
:1054A400B0339B0013445B689B683A685078396951
:1054B4003A68D28898473B68DB88072B28BF0723C4
:1054C400FB813B69FA891946786801F0B3FD90E0E5
:1054D4003B685A783B6983F800223B68DB883F2BA2
:1054E40003D83B68DB88DAB200E040223B6983F8EA
:1054F400012239693B6993F801321A46786801F050
:10550400C5FD76E07B68D3F8D4327A68B0339B006B
:1055140013445B689B683A6850780022396898475E
:1055240067E03B685B780B2B51D801A252F823F05B
:1055340065550008E1550008D3550008D355000807
:10554400D3550008D3550008D3550008D355000897
:10555400D3550008D35500088F550008B9550008E5
:105564007B6893F89C32DBB2032B07D107F10A0363
:1055740002221946786801F05DFD32E039687868E6
:1055840001F0E7FC0323FB752BE07B6893F89C3266
:10559400DBB2032B07D107F10D030122194678680A
:1055A40001F048FD1DE03968786801F0D2FC03235E
:1055B400FB7516E07B6893F89C32DBB2032B0FD0AB
:1055C4003968786801F0C5FC0323FB7508E0396885
:1055D400786801F0BEFC0323FB7502E000BF08E01D
:1055E40000BF06E03968786801F0B3FC0323FB755B
:1055F40000BFFB7D18461837BD4680BD80B584B01A
:1056040000AF78600B46FB707B68D3F8C832FB6050
:105614007B68D3F8D4227B68B03253F82230002B55
:1056240001D1032365E07B68D3F8D4227B68B032D0
:1056340053F82230BB60FB7803F00F0279681346FD
:105644009B0013449B000B4418331B68002B2FD082
:10565400FB7803F00F02796813469B0013449B0008
:105664000B4418331A68FB7803F00F01F8680B46F3
:10567400DB000B449B00034448331B68B2FBF3F18B
:1056840001FB03F3D31A002B12D1FB7803F00F02B2
:10569400796813469B0013449B000B441833002283
:1056A4001A60F97800230022786802F0ECF91FE010
:1056B400BB680022C3F814227B68D3F8D4327A681A
:1056C400B0339B0013445B681B69002B10D07B68CC
:1056D400D3F8D4327A68B0339B0013445B681B69F7
:1056E400BA68D2F80802BA6802F50471FA789847E1
:1056F400002318461037BD4680BD80B584B000AF86
:1057040078600B46FB707B68D3F8D4227B68B03298
:1057140053F82230FB607B68D3F8D4227B68B03224
:1057240053F82230002B01D103231AE0FB781946E9
:10573400786802F0EAF90246FB68C3F80C227B6839
:10574400D3F8D4327A68B0339B0013445B68DB68C7
:10575400FA68D2F80402FA6802F50372114698470F
:10576400002318461037BD4680BD80B584B000AF15
:1057740078607B68D3F8D4227B68B03253F8223047
:10578400FB60FB68002B01D1032325E07B68D3F881
:10579400D4327A68B0339B0013445B68002B1AD070
:1057A400FB6893F80032FF2B15D07B68D3F8D43212
:1057B4007A68B0339B0013445B689B68FA6892F87C
:1057C4000002F968FA6892F8012292B29847FB68DD
:1057D400FF2283F80022002318461037BD4680BDFF
:1057E40080B586B000AF78608221184800F04FFD84
:1057F40078610121154800F04AFD38618121134880
:1058040000F045FDF8607B69002B02D07B69102213
:105814009A713B69002B06D03B69002242F040029A
:105824001A7100225A71FB68002B06D0FB68002213
:1058340042F040021A7100225A717B6843221A8096
:10584400024B18461837BD4680BD00BF5C000020DF
:1058540080B586B000AF78608221184800F017FD4B
:1058640078610121154800F012FD38618121134847
:1058740000F00DFDF8607B69002B02D07B691022DB
:105884009A713B69002B06D03B6900221A710022F1
:1058940042F002025A71FB68002B06D0FB6800221A
:1058A4001A71002242F002025A717B6843221A8064
:1058B400024B18461837BD4680BD00BF5C0000206F
:1058C40080B586B000AF78608221184800F0DFFC14
:1058D40078610121154800F0DAFC38618121134810
:1058E40000F0D5FCF8607B69002B02D07B691022A4
:1058F4009A713B69002B06D03B69002242F04002BA
:105904001A7100225A71FB68002B06D0FB68002232
:1059140042F040021A7100225A717B6843221A80B5
:10592400024B18461837BD4680BD00BF5C000020FE
:1059340080B483B000AF78607B680A221A80034B7E
:1059440018460C37BD465DF8047B704718000020EC
:1059540080B483B000AF786039603B68002B01D11C
:10596400032309E07B68D3F8D4327A68B0339B0010
:1059740013443A685A60002318460C37BD465DF854
:10598400047B704780B487B000AFF860B9607A6078
:10599400FB68D3F8D422FB68B03253F822307B6121
:1059A4007B69002B01D1032308E07B69BA68C3F843
:1059B40008227B697A68C3F81022002318461C3732
:1059C400BD465DF8047B704780B485B000AF786055
:1059D40039607B68D3F8D4227B68B03253F8223024
:1059E400FB60FB68002B01D1032304E0FB683A68E9
:1059F400C3F80422002318461437BD465DF8047B1F
:105A04007047000080B584B000AF78607B68D3F83D
:105A1400D4227B68B03253F82230BB600123FB737D
:105A24007B68D3F8D4227B68B03253F82230002B41
:105A340001D1032325E0BB68D3F81432002B1FD116
:105A4400BB680122C3F81422104B1B7803F00F0229
:105A5400BB68D3F81012786813469B0013449B006C
:105A6400034418331960094B1978BB68D3F808222A
:105A7400BB68D3F81032786802F005F80023FB7392
:105A8400FB7B18461037BD4680BD00BF9F00002039
:105A940080B584B000AF78607B68D3F8D4227B688B
:105AA400B03253F82230FB607B68D3F8D4227B6891
:105AB400B03253F82230002B01D1032318E07B6865
:105AC4001B7C002B0AD10C4B1978FB68D3F80422F9
